:100000000C945E000C9486000C9486000C94860080
:100010000C9486000C9486000C9486000C94860048
:100020000C9486000C9486000C9486000C94860038
:100030000C9486000C9486000C9486000C94860028
:100040000C9490020C9486000C9400030C94DA0239
:100050000C9486000C9486000C9486000C94860008
:100060000C9486000C9486000000000024002700F9
:100070002A0000000000250028002B0004040404CE
:100080000404040402020202020203030303030342
:10009000010204081020408001020408102001021F
:1000A00004081020000000080002010000030407FB
:1000B00000000000000000003203970411241FBE5E
:1000C000CFEFD8E0DEBFCDBF21E0A6E2B1E001C0B6
:1000D0001D92A73DB207E1F711E0A0E0B1E0EAEB25
:1000E000FEE002C005900D92A632B107D9F710E0EC
:1000F000CDE5D0E004C02197FE010E943B05CC3540
:10010000D107C9F70E946D030C9450070C940000AE
:10011000E1EBF0E02491EDE9F0E09491E9E8F0E022
:10012000E491EE23C9F0222339F0233001F1A8F441
:10013000213019F1223029F1F0E0EE0FFF1FEE58C7
:10014000FF4FA591B4912FB7F894EC91811126C07F
:1001500090959E239C932FBF08952730A9F02830B7
:10016000C9F0243049F7209180002F7D03C02091F1
:1001700080002F7720938000DFCF24B52F7724BD18
:10018000DBCF24B52F7DFBCF2091B0002F772093BC
:10019000B000D2CF2091B0002F7DF9CF9E2BDACFC7
:1001A000AF92BF92CF92DF92EF92FF920F931F9385
:1001B000CF93DF936C017B018B01040F151FEB01C3
:1001C0005E01AE18BF08C017D10759F06991D6017A
:1001D000ED91FC910190F081E02DC6010995892BEC
:1001E00079F7C501DF91CF911F910F91FF90EF90AB
:1001F000DF90CF90BF90AF900895FC01538D448D58
:10020000252F30E0842F90E0821B930B541710F0C1
:10021000CF96089501970895FC01918D828D9817CE
:1002200061F0A28DAE0FBF2FB11D5D968C91928DA6
:100230009F5F9F73928F90E008958FEF9FEF0895D7
:10024000FC01918D828D981731F0828DE80FF11DA0
:10025000858D90E008958FEF9FEF0895FC01918DBB
:10026000228D892F90E0805C9F4F821B91098F73B4
:100270009927089580E391E00E942E0121E0892BC7
:1002800009F420E0822F0895FC01A48DA80FB92F56
:10029000B11DA35ABF4F2C91848D90E001968F73AE
:1002A0009927848FA689B7892C93A089B1898C91CD
:1002B000837080648C93938D848D981306C002881C
:1002C000F389E02D80818F7D80830895EF92FF92E6
:1002D0000F931F93CF93DF93EC0181E0888F9B8D69
:1002E0008C8D98131AC0E889F989808185FF15C023
:1002F0009FB7F894EE89FF896083E889F989808146
:100300008370806480839FBF81E090E0DF91CF9114
:100310001F910F91FF90EF900895F62E0B8D10E036
:100320000F5F1F4F0F731127E02E8C8D8E110CC0A5
:100330000FB607FCFACFE889F989808185FFF5CFF0
:10034000CE010E944401F1CFEB8DEC0FFD2FF11D8A
:10035000E35AFF4FF0829FB7F8940B8FEA89FB892D
:1003600080818062CFCFCF93DF93EC01888D88238B
:10037000B9F0AA89BB89E889F9898C9185FD03C008
:10038000808186FD0DC00FB607FCF7CF8C9185FFED
:10039000F2CF808185FFEDCFCE010E944401E9CFED
:1003A000DF91CF910895CF93DF93FC01019000205E
:1003B000E9F73197AF01481B590BBC0180E391E08D
:1003C0000E94D000EC0142E050E068E171E080E37F
:1003D00091E00E94D0008C0F9D1FDF91CF91089576
:1003E0000F931F93CF93DF93EC018881998100973E
:1003F00059F02A813B812617370730F081E0DF91E1
:10040000CF911F910F9108958B016F5F7F4F0E94D5
:100410006606009759F0998388831B830A832C8191
:100420003D81232B59F7FC011082E8CF80E0E7CF14
:10043000EF92FF920F931F93CF93DF93EC017B0119
:100440008A01BA010E94F00128813981811114C00A
:100450002115310519F0C9010E94DD0519821882A4
:100460001D821C821B821A82CE01DF91CF911F91C7
:100470000F91FF90EF9008951D830C83B701C90180
:100480000E942C07F1CFEF92FF920F931F93CF930F
:10049000DF9300D0CDB7DEB7EE24E39480E391E0A4
:1004A0000E942E01892B69F180E391E00E940C01EA
:1004B000F82E89831A820091D1011091D2010F5F29
:1004C0001F4FB8018DEC91E00E94F001882399F054
:1004D0002091CD013091CE018091D1019091D20136
:1004E000BE016F5F7F4F820F931F0E942C071093F6
:1004F000D2010093D1018AE0F812D0CFE092260118
:10050000CDCF0F900F90DF91CF911F910F91FF9062
:10051000EF9008950E943A0181110C9443020895CE
:100520001F920F920FB60F9211242F933F938F9328
:100530009F93AF93BF9380912C0190912D01A09137
:100540002E01B0912F0130912B0123E0230F2D3785
:1005500058F50196A11DB11D20932B0180932C010C
:1005600090932D01A0932E01B0932F01809127012C
:1005700090912801A0912901B0912A010196A11D15
:10058000B11D8093270190932801A0932901B09376
:100590002A01BF91AF919F918F913F912F910F9021
:1005A0000FBE0F901F90189526E8230F0296A11DED
:1005B000B11DD2CF1F920F920FB60F9211242F931D
:1005C0003F934F935F936F937F938F939F93AF93DB
:1005D000BF93EF93FF9380E391E00E944401FF916A
:1005E000EF91BF91AF919F918F917F916F915F91AB
:1005F0004F913F912F910F900FBE0F901F90189524
:100600001F920F920FB60F9211242F938F939F93E7
:10061000EF93FF93E0914001F09141018081E091DF
:100620004601F091470182FD1BC0908180914901F4
:100630008F5F8F7320914A01821741F0E091490149
:10064000F0E0E05DFE4F958F80934901FF91EF91BF
:100650009F918F912F910F900FBE0F901F90189523
:100660008081F4CFE0E3F1E01382128288EE93E020
:10067000A0E0B0E084839583A683B7838AE091E00D
:100680009183808385EC90E09587848784EC90E06B
:100690009787868780EC90E0918B808B81EC90E04F
:1006A000938B828B82EC90E0958B848B86EC90E030
:1006B000978B868B118E128E138E148EEDECF1E0DB
:1006C00011821082138212821582148250E040E05F
:1006D0006AE171E0CF010C941802CF93DF9300D050
:1006E00000D000D0CDB7DEB7789484B5826084BDE9
:1006F00084B5816084BD85B5826085BD85B5816026
:1007000085BD80916E00816080936E0010928100A3
:10071000809181008260809381008091810081605E
:10072000809381008091800081608093800080911F
:10073000B10084608093B1008091B00081608093AB
:10074000B00080917A00846080937A0080917A0072
:10075000826080937A0080917A00816080937A0031
:1007600080917A00806880937A001092C100E091B5
:100770004001F091410182E08083E0913C01F091E1
:100780003D011082E0913E01F0913F018FEC8083AA
:1007900010924801E0914401F091450186E0808388
:1007A000E0914201F0914301808180618083E0917A
:1007B0004201F0914301808188608083E091420191
:1007C000F0914301808180688083E0914201F09143
:1007D000430180818F7D8083EDE9F0E02491E9E899
:1007E000F0E08491882399F090E0880F991FFC0134
:1007F000E859FF4FA591B491FC01EE58FF4F859148
:1008000094918FB7F894EC91E22BEC938FBF0AE0B0
:1008100010E080912601882309F477C01A8219829A
:100820001C821B821E821D8243E050E06BE171E05E
:10083000CE0101960E9418024D815E818091D10106
:100840009091D201C980DA808417950780F0809159
:10085000CD019091CE01009751F0C114D10439F02F
:10086000B6010E943307FF24F394892B09F0F12C81
:10087000C114D10419F0C6010E94DD05FF20D9F191
:100880004091D1015091D20141155105F9F063E039
:1008900070E04330510508F4BA018091CD01909188
:1008A000CE01461B570B5093D2014093D101680FE4
:1008B000791F0E944107E091CD01F091CE01809116
:1008C000D1019091D201E80FF91F10828091CD01E2
:1008D0009091CE01009709F10E94A004CB01B801CC
:1008E0000E941305892BE9F481E00E9488008FE1C2
:1008F00091E00E94D30150E040E06AE171E08DECAC
:1009000091E00E941802109226010E943A01882369
:1009100009F47FCF0E9443027CCF60E070E0CB01FE
:10092000DDCF80E00E94880082E291E0E2CF8091FA
:10093000CD019091CE01009711F00C94DD05089542
:100940001F93FC0199278827BC01E894119110326C
:10095000E9F3193010F01E30C8F31B3251F01D328C
:1009600049F4689406C00E94C704610F711D811D7F
:10097000911D119110531A30B0F33EF4909580956B
:10098000709561957F4F8F4F9F4F1F910895592FFD
:10099000482F372F262F660F771F881F991F660F46
:1009A000771F881F991F620F731F841F951F660F83
:1009B000771F881F991F08952F923F924F925F9241
:1009C0006F927F928F929F92AF92BF92CF92DF925F
:1009D000EF92FF920F931F93CF93DF93CDB7DEB7C4
:1009E000CA1BDB0B0FB6F894DEBF0FBECDBF099458
:1009F0002A88398848885F846E847D848C849B84AF
:100A0000AA84B984C884DF80EE80FD800C811B81BC
:100A1000AA81B981CE0FD11D0FB6F894DEBF0FBEEB
:100A2000CDBFED01089597FB072E16F4009407D073
:100A300077FD09D00E94270507FC05D03EF490956C
:100A400081959F4F0895709561957F4F0895AA1BDA
:100A5000BB1B51E107C0AA1FBB1FA617B70710F0A9
:100A6000A61BB70B881F991F5A95A9F780959095DB
:100A7000BC01CD010895EE0FFF1F0590F491E02D0C
:100A800009940F931F93CF93DF938230910510F455
:100A900082E090E0E091D501F091D60130E020E0D5
:100AA000B0E0A0E0309799F42115310509F44AC06F
:100AB000281B390B24303105D8F58A819B816115BB
:100AC000710589F1FB0193838283FE0111C040818E
:100AD00051810281138148175907E0F048175907DF
:100AE00099F4109761F012960C93129713961C9339
:100AF0003296CF01DF91CF911F910F91089500930E
:100B0000D5011093D601F4CF2115310551F04217CC
:100B1000530738F0A901DB019A01BD01DF01F8019B
:100B2000C1CFEF01F9CF9093D6018093D501CDCFFE
:100B3000FE01E20FF31F8193919322503109398313
:100B40002883D7CF2091D3013091D401232B41F4B6
:100B500020910201309103013093D4012093D301FD
:100B600020910001309101012115310541F42DB78B
:100B70003EB74091040150910501241B350BE091D3
:100B8000D301F091D401E217F307A0F42E1B3F0B21
:100B90002817390778F0AC014E5F5F4F24173507EF
:100BA00048F04E0F5F1F5093D4014093D3018193BF
:100BB00091939FCFF0E0E0E09CCFCF93DF9300973D
:100BC000E9F0FC01329713821282A091D501B09115
:100BD000D601ED0130E020E01097A1F420813181B1
:100BE000820F931F2091D3013091D4012817390728
:100BF00009F061C0F093D401E093D301DF91CF916C
:100C00000895EA01CE17DF07E8F54A815B819E016E
:100C100041155105B1F7E901FB83EA8349915991E7
:100C2000C40FD51FEC17FD0761F4808191810296F6
:100C3000840F951FE90199838883828193819B8327
:100C40008A83F0E0E0E012968D919C9113970097D3
:100C5000B9F52D913C911197CD010296820F931F0A
:100C60002091D3013091D4012817390739F63097F4
:100C700051F51092D6011092D501B093D401A093F2
:100C8000D301BCCFD383C28340815181840F951F90
:100C9000C817D90761F44E5F5F4F88819981480F6B
:100CA000591F518340838A819B81938382832115BD
:100CB000310509F0B0CFF093D601E093D5019ECF76
:100CC000FD01DC01C0CF13821282D7CFB0E0A0E0DB
:100CD000ECE6F6E00C94DE048C01009751F4CB01B5
:100CE0000E9441058C01C801CDB7DEB7E0E10C944C
:100CF000FA04FC01E60FF71F9C0122503109E217AC
:100D0000F30708F49DC0D901CD91DC911197C61766
:100D1000D70798F0C530D10530F3CE010497861778
:100D2000970708F3C61BD70B2297C193D1936D93F6
:100D30007C93CF010E94DD05D6CF5B01AC1ABD0AC2
:100D40004C018C0E9D1EA091D501B091D601512C65
:100D5000412CF12CE12C109731F58091D301909129
:100D6000D4018815990509F05CC04616570608F0AD
:100D700058C08091000190910101009741F48DB716
:100D80009EB74091040150910501841B950BE81713
:100D9000F90708F055C0F093D401E093D301F901AD
:100DA00071836083A0CF8D919C91119712966C9066
:100DB000129713967C901397A815B90559F56C01F5
:100DC00042E0C40ED11CCA14DB0420F1AC014A1964
:100DD0005B09DA011296159780F062827382518363
:100DE0004083D9016D937C93E114F10471F0D70134
:100DF0001396FC93EE93129776CF22968C0F9D1F3D
:100E0000F90191838083F301EFCFF093D601E09352
:100E1000D50169CF4816590608F42C017D01D3018C
:100E20009ACFCB010E9441057C01009749F0AE01A9
:100E3000B8010E942307C8010E94DD05870153CF36
:100E400010E000E050CFFB01DC0102C001900D92E8
:100E500041505040D8F70895FB01DC0101900D92FC
:100E60000020E1F70895FB01DC014150504030F0D3
:100E70008D910190801919F40020B9F7881B990B06
:100E80000895FB01DC014150504048F001900D9263
:100E90000020C9F701C01D9241505040E0F708956D
:100EA00010E0CDE5D0E004C0FE010E943B05219694
:0A0EB000CE35D107C9F7F894FFCF43
:100EBA000000D7018000000000006601D000FD009C
:100ECA00B3012E010C0120010D0A0041542B004FE1
:060EDA004E004F464600E9
:00000001FF
